{
  "contractName": "FundTransfer",
  "abi": [
    {
      "inputs": [],
      "payable": false,
      "stateMutability": "nonpayable",
      "type": "constructor"
    },
    {
      "anonymous": false,
      "inputs": [
        {
          "indexed": true,
          "internalType": "address",
          "name": "toAddress",
          "type": "address"
        },
        {
          "indexed": false,
          "internalType": "uint256",
          "name": "amount",
          "type": "uint256"
        }
      ],
      "name": "TransferEvent",
      "type": "event"
    },
    {
      "constant": false,
      "inputs": [
        {
          "internalType": "address",
          "name": "fromAddress",
          "type": "address"
        },
        {
          "internalType": "address payable",
          "name": "toAddress",
          "type": "address"
        }
      ],
      "name": "fundTransfer",
      "outputs": [],
      "payable": true,
      "stateMutability": "payable",
      "type": "function"
    }
  ],
  "bytecode": "0x608060405234801561001057600080fd5b50336000806101000a81548173ffffffffffffffffffffffffffffffffffffffff021916908373ffffffffffffffffffffffffffffffffffffffff160217905550610200806100606000396000f3fe60806040526004361061001e5760003560e01c80635d87763b14610023575b600080fd5b6100856004803603604081101561003957600080fd5b81019080803573ffffffffffffffffffffffffffffffffffffffff169060200190929190803573ffffffffffffffffffffffffffffffffffffffff169060200190929190505050610087565b005b81818073ffffffffffffffffffffffffffffffffffffffff168273ffffffffffffffffffffffffffffffffffffffff16141561010e576040517f08c379a00000000000000000000000000000000000000000000000000000000081526004018080602001828103825260228152602001806101aa6022913960400191505060405180910390fd5b8273ffffffffffffffffffffffffffffffffffffffff166108fc349081150290604051600060405180830381858888f19350505050158015610154573d6000803e3d6000fd5b508273ffffffffffffffffffffffffffffffffffffffff167fb98a26c1d0427d0e3492e749861c7795bed8f6e7599a65143b5903942e611bb0346040518082815260200191505060405180910390a25050505056fe53656e64657220616e642052656365697665722043616e6e6f742062652053616d65a265627a7a72315820ad46659334734e55042645809ca850108deb69a5aa4c75ad9e66d21e4913d40564736f6c63430005100032",
  "source": "pragma solidity ^0.5.0;\n\ncontract FundTransfer {\n    \n    // state variable\n    address nodeAddress;\n    \n    constructor() public {\n        nodeAddress = msg.sender;\n    }\n    \n    //event to alert after successful transaction\n    event TransferEvent(address indexed toAddress, uint amount);\n    \n    // function to transfer the amount\n    function fundTransfer(address fromAddress, address payable toAddress) public payable checkSender(fromAddress, toAddress) {\n        toAddress.transfer(msg.value);\n        emit TransferEvent(toAddress, msg.value);\n    }\n    \n    //modifier to validate the transaction\n    modifier checkSender(address fromAddress, address toAddress) {\n        require(fromAddress != toAddress, \"Sender and Receiver Cannot be Same\");\n        _;\n    }\n      \n}\n",
  "sourcePath": "D:\\Virtual_Gain_Technologies\\FundTransfer\\Truffle\\contracts\\FundTransfer.sol",
  "compiler": {
    "name": "solc",
    "version": "0.5.16+commit.9c3226ce.Emscripten.clang"
  },
  "schemaVersion": "3.0.23",
  "updatedAt": "2020-09-11T18:22:51.270Z",
  "networkType": "ethereum",
  "devdoc": {
    "methods": {}
  },
  "userdoc": {
    "methods": {}
  }
}